:1000000012C02CC02BC02AC029C028C027C026C0BF
:1000100025C024C023C0A6C021C020C01FC01EC050
:100020001DC01CC01BC011241FBECFE5D4E0DEBF25
:10003000CDBF10E0A0E6B0E0EAEEFDE002C0059022
:100040000D92A238B107D9F721E0A2E8B0E001C0D3
:100050001D92A938B207E1F72DD1C5C6D1CFE3D2A1
:1000600020E030E040E851E46AD39B01AC0160E05D
:1000700074E284E79BE43CD220E030E040E85FE3B8
:10008000D2D19ED270BD69B988E18AB9579A86E803
:1000900080BD08955F9BFECF8CB108955D9BFECF20
:1000A0008CB95E9BFECF08950F931F93CF93DF9380
:1000B000FC01F8948081882359F0EF0121968E018C
:1000C0008181ECDF2196F80180818111F8CF78944D
:1000D000DF91CF911F910F9108958FE19EE40197D9
:1000E000F1F700C00000809185019091860104978E
:1000F00069F442B321E030E0C9010090870102C0F9
:10010000880F991F0A94E2F7842B82BB81E090E06C
:1001100090938401809383018FE19EE40197F1F72E
:1001200000C0000008958091850190918601049798
:1001300071F442B321E030E0C9010090870102C0B0
:10014000880F991F0A94E2F78095842382BB8FE879
:1001500091E00197F1F700C0000010928401109225
:10016000830108951F920F920FB60F9211242F93BF
:100170003F934F935F936F937F938F939F93AF932F
:10018000BF93CF93DF93EF93FF93F89483DF209196
:100190008200309183002E3F31055CF01092830085
:1001A000109282009FEFE4E8F0E0DF011D929A9543
:1001B000E9F78A3009F453C08D3009F04CC05BC0B8
:1001C0002091820030918300A9014F5F5F4F5093CF
:1001D000830040938200F901EC57FF4F8083979A88
:1001E000EFE8F1E03197F1F700C0000057DF8FE84A
:1001F00091E00197F1F700C0000080E690E054DF45
:1002000080918200909183000A97A4F080918200EF
:1002100090918300CAE0D0E0BE01F4D280E3860F63
:100220003DDF8091820090918300BE01EBD2805D22
:1002300035DF06C08091820090918300805D2EDFC3
:100240008BE690E031DFAFE8B1E01197F1F700C045
:10025000000078941CC0803208F0B2CFFACF109220
:100260008300109282009FEFE4E8F0E0DF011D922E
:100270009A95E9F7B4CF10928300109282009FEF15
:10028000E4E8F0E0DF011D929A95E9F7A8CFFF912D
:10029000EF91DF91CF91BF91AF919F918F917F911E
:1002A0006F915F914F913F912F910F900FBE0F90E3
:1002B0001F901895CF93DF93CDB7DEB7CD51D140C6
:1002C0000FB6F894DEBF0FBECDBFB89AB9988F9A1B
:1002D00084E090E0909386018093850187E090E030
:1002E000909388018093870160E970ED83E090E04E
:1002F000B6DE789418DF8FEC97E00197F1F700C035
:100300000000212C312C2101C12CD12C8E01055F44
:100310001F4FFE0131967F010F2EFFE6AF2EF0E05A
:10032000BF2EF02D6894992493F80F2EFDE06F2EC8
:10033000FAE07F2E812CF02DF8E82F16F3E13F062E
:10034000410451045CF48FEF281A380A480A580A0D
:10035000211431044104510409F062C0C098EFE84F
:10036000F1E03197F1F700C00000F80183E191E07E
:1003700011920197E9F7F7018AE011928A95E9F75E
:10038000DF92CF92BF92AF92FF92EF926DD2E2E7EF
:10039000F0E0D801892D01900D928A95E1F7B7011F
:1003A000C80157D2D8010D900020E9F71197EAE76C
:1003B000F0E087E001900D928A95E1F7F89464E807
:1003C00070E0C80146D2F80101900020E9F73197AA
:1003D000608271828282EFE8F1E03197F1F700C02C
:1003E00000007BDE8FE891E00197F1F700C000008C
:1003F000C8015ADEEFE8F1E03197F1F700C00000E4
:1004000092DE7894FFEFCF1ADF0A0F900F900F90D3
:100410000F900F900F90212C312C412C512C8CCF10
:10042000C09A81DE89CF5058BB27AA270ED04DC174
:100430003ED130F043D120F031F49F3F11F41EF44F
:1004400033C10EF4E095E7FB29C1E92F4FD180F3CA
:10045000BA17620773078407950718F071F49EF5C1
:1004600067C10EF4E0950B2EBA2FA02D0B01B90138
:1004700090010C01CA01A0011124FF27591B99F01A
:10048000593F50F4503E68F11A16F040A22F232F26
:10049000342F4427585FF3CF469537952795A79576
:1004A000F0405395C9F77EF41F16BA0B620B730B1D
:1004B000840BBAF09150A1F0FF0FBB1F661F771F8E
:1004C000881FC2F70EC0BA0F621F731F841F48F443
:1004D000879577956795B795F7959E3F08F0B3CFC9
:1004E0009395880F08F09927EE0F979587950895B3
:1004F0000CD0EBC0E3D040F0DAD030F021F45F3F15
:1005000019F0CCC0511115C1CFC0F0D098F3992388
:10051000C9F35523B1F3951B550BBB27AA276217C7
:100520007307840738F09F5F5F4F220F331F441F0C
:10053000AA1FA9F333D00E2E3AF0E0E830D0915044
:100540005040E695001CCAF729D0FE2F27D0660F31
:10055000771F881FBB1F261737074807AB07B0E870
:1005600009F0BB0B802DBF01FF2793585F4F2AF086
:100570009E3F510568F092C0DCC05F3FECF3983EAF
:10058000DCF3869577956795B795F7959F5FC9F7E3
:10059000880F911D9695879597F90895E1E0660F6C
:1005A000771F881FBB1F621773078407BA0720F0E5
:1005B000621B730B840BBA0BEE1F88F7E09508954E
:1005C00004D06894B111B5C0089598D088F09F57B1
:1005D00090F0B92F9927B751A0F0D1F0660F771F8F
:1005E000881F991F1AF0BA95C9F712C0B13081F06F
:1005F0009FD0B1E008959CC0672F782F8827B85FFF
:1006000039F0B93FCCF3869577956795B395D9F7CF
:100610003EF490958095709561957F4F8F4F9F4FD9
:100620000895E89409C097FB3EF4909580957095E5
:1006300061957F4F8F4F9F4F9923A9F0F92F96E92E
:10064000BB279395F695879577956795B795F111A3
:10065000F8CFFAF4BB0F11F460FF1BC06F5F7F4F40
:100660008F4F9F4F16C0882311F096E911C0772352
:1006700021F09EE8872F762F05C0662371F096E85B
:10068000862F70E060E02AF09A95660F771F881F2A
:10069000DAF7880F9695879597F9089597F99F67E8
:1006A00080E870E060E008959FEF80EC08950024FA
:1006B0000A941616170618060906089500240A94C7
:1006C00012161306140605060895092E0394000C4D
:1006D00011F4882352F0BB0F40F4BF2B11F460FFDC
:1006E00004C06F5F7F4F8F4F9F4F089557FD905805
:1006F000440F551F59F05F3F71F04795880F97FBE6
:10070000991F61F09F3F79F087950895121613069F
:100710001406551FF2CF4695F1DF08C016161706CE
:100720001806991FF1CF8695710561050894089503
:10073000E894BB2766277727CB0197F908950BD05C
:10074000C4CFB5DF28F0BADF18F0952309F0A6CFA3
:10075000ABCF1124EECFCADFA0F3959FD1F3950F55
:1007600050E0551F629FF001729FBB27F00DB11D35
:10077000639FAA27F00DB11DAA1F649F6627B00DC5
:10078000A11D661F829F2227B00DA11D621F739FAE
:10079000B00DA11D621F839FA00D611D221F749FBC
:1007A0003327A00D611D231F849F600D211D822F03
:1007B000762F6A2F11249F5750408AF0E1F088234A
:1007C0004AF0EE0FFF1FBB1F661F771F881F915057
:1007D0005040A9F79E3F510570F060CFAACF5F3F10
:1007E000ECF3983EDCF3869577956795B795F7958A
:1007F000E7959F5FC1F7FE2B880F911D9695879512
:1008000097F9089597FB072E16F4009406D077FD0C
:1008100008D00BD007FC05D03EF4909581959F4FF2
:100820000895709561957F4F0895AA1BBB1B51E1F8
:1008300007C0AA1FBB1FA617B70710F0A61BB70B50
:10084000881F991F5A95A9F780959095BC01CD01F5
:100850000895FB01DC010D900020E9F7119701904C
:100860000D920020E1F70895AEE0B0E0E9E3F4E096
:1008700091C20D891E8986E08C831A8309838FEFCC
:100880009FE79E838D83AE01475E5F4F6F89788DB2
:10089000CE01019608D0EF81F885E00FF11F10829C
:1008A0002E96E4E093C2ACE0B0E0E8E5F4E064C288
:1008B0007C016B018A01FC0117821682838181FF12
:1008C000B0C1CE0101964C01F7019381F60193FD71
:1008D000859193FF81916F01882309F49EC1853230
:1008E00039F493FD859193FF81916F01853221F455
:1008F000B70190E0B1D1E8CF512C312C20E020326B
:10090000A0F48B3269F030F4803259F0833269F40C
:1009100020612CC08D3239F0803339F4216026C03B
:100920002260246023C0286021C027FD27C030ED4D
:10093000380F3A3078F426FF06C0FAE05F9E300D9B
:100940001124532E13C08AE0389E300D1124332E0B
:1009500020620CC08E3221F426FD5FC1206406C0E7
:100960008C3611F4206802C0883641F4F60193FDFC
:10097000859193FF81916F018111C1CF982F9F7D48
:100980009554933028F40C5F1F4FFFE3F9830DC09B
:10099000833631F0833771F0833509F057C021C0B9
:1009A000F801808189830E5F1F4F44244394512CAA
:1009B000540114C03801F2E06F0E711CF801A080E0
:1009C000B18026FF03C0652D70E002C06FEF7FEF9E
:1009D000C5012C8736D12C0183012C852F77222E3F
:1009E00016C03801F2E06F0E711CF801A080B180D2
:1009F00026FF03C0652D70E002C06FEF7FEFC501D9
:100A00002C8714D12C012C852068222E830123FCF5
:100A100019C0832D90E048165906A0F4B70180E272
:100A200090E01AD13A94F5CFF50127FC859127FE85
:100A300081915F01B70190E00FD131103A94F1E05C
:100A40004F1A51084114510479F7DEC0843611F071
:100A5000893631F5F80127FF07C0608171818281F5
:100A600093810C5F1F4F08C060817181882777FDDB
:100A70008095982F0E5F1F4F2F76B22E97FF09C0DB
:100A800090958095709561957F4F8F4F9F4F20680F
:100A9000B22E2AE030E0A40111D1A82EA81843C03C
:100AA000853729F42F7EB22E2AE030E025C0F22FC0
:100AB000F97FBF2E8F36C1F018F4883579F0ADC0BC
:100AC000803719F0883721F0A8C02F2F2061B22E6F
:100AD000B4FE0DC08B2D8460B82E09C024FF0AC05F
:100AE0009F2F9660B92E06C028E030E005C020E1B7
:100AF00030E002C020E132E0F801B7FE07C06081BB
:100B00007181828193810C5F1F4F06C0608171816A
:100B100080E090E00E5F1F4FA401D0D0A82EA8184F
:100B2000FB2DFF77BF2EB6FE0BC02B2D2E7FA514FD
:100B300050F4B4FE0AC0B2FC08C02B2D2E7E05C0B6
:100B40007A2C2B2D03C07A2C01C0752C24FF0DC0EC
:100B5000FE01EA0DF11D8081803311F4297E09C068
:100B600022FF06C07394739404C0822F867809F024
:100B7000739423FD12C020FF06C05A2C731418F47E
:100B8000530C5718732C731460F4B70180E290E093
:100B90002C8762D073942C85F6CF731410F4371819
:100BA00001C0312C24FF11C0B70180E390E02C87F5
:100BB00053D02C8522FF16C021FF03C088E590E0AA
:100BC00002C088E790E0B7010CC0822F867851F010
:100BD00021FD02C080E201C08BE227FD8DE2B7015A
:100BE00090E03AD0A51430F4B70180E390E034D01F
:100BF0005A94F8CFAA94F401EA0DF11D8081B7014F
:100C000090E02AD0A110F6CF332009F45DCEB701D1
:100C100080E290E021D03A94F7CFF7018681978166
:100C200002C08FEF9FEF2C96E2E1C2C0FC0105905D
:100C3000615070400110D8F7809590958E0F9F1FDE
:100C40000895FC016150704001900110D8F7809523
:100C500090958E0F9F1F08950F931F93CF93DF934F
:100C6000182F092FEB018B8181FD03C08FEF9FEFC0
:100C700020C082FF10C04E815F812C813D814217D0
:100C800053077CF4E881F9819F012F5F3F4F39833F
:100C90002883108306C0E885F985812F0995892B63
:100CA00029F72E813F812F5F3F4F3F832E83812F76
:100CB000902FDF91CF911F910F910895FA01AA27EC
:100CC000283051F1203181F1E8946F936E7F6E5F8F
:100CD0007F4F8F4F9F4FAF4FB1E03ED0B4E03CD03D
:100CE000670F781F891F9A1FA11D680F791F8A1F20
:100CF000911DA11D6A0F711D811D911DA11D20D087
:100D000009F468943F912AE0269F11243019305D40
:100D10003193DEF6CF010895462F4770405D419331
:100D2000B3E00FD0C9F7F6CF462F4F70405D4A337E
:100D300018F0495D31FD4052419302D0A9F7EACF46
:100D4000B4E0A6959795879577956795BA95C9F775
:100D500000976105710508959B01AC010A2E069468
:100D60005795479537952795BA95C9F7620F731F21
:100D7000841F951FA01D08952F923F924F925F925E
:100D80006F927F928F929F92AF92BF92CF92DF929B
:100D9000EF92FF920F931F93CF93DF93CDB7DEB700
:100DA000CA1BDB0B0FB6F894DEBF0FBECDBF099494
:100DB0002A88398848885F846E847D848C849B84EB
:100DC000AA84B984C884DF80EE80FD800C811B81F9
:100DD000AA81B981CE0FD11D0FB6F894DEBF0FBE28
:0A0DE000CDBFED010895F894FFCF98
:100DEA000D0D0A73656E74203D20000D0D0A002555
:100DFA006400205B2069203D2000205D203E3E20CB
:020E0A000000E6
:00000001FF
